:020000040800F2
:10000000580900200D0D0008690200086B02000865
:100010006D0200086F020008710200080000000075
:100020000000000000000000000000007302000853
:10003000750200080000000077020008790200083D
:10004000270D0008270D0008270D0008270D0008C0
:10005000270D0008270D0008270D0008270D0008B0
:10006000270D0008270D0008270D0008270D0008A0
:10007000270D0008270D0008270D0008270D000890
:10008000270D0008270D0008270D0008270D000880
:10009000270D0008270D0008270D0008270D000870
:1000A000270D0008270D0008270D0008270D000860
:1000B0002D020008270D0008270D0008270D000855
:1000C000270D0008270D0008270D0008270D000840
:1000D000270D0008A30C0008D1030008270D000815
:1000E000270D0008270D0008270D0008270D000820
:1000F000270D0008270D0008270D0008270D000810
:10010000270D0008270D0008270D0008270D0008FF
:10011000270D0008270D0008270D0008270D0008EF
:10012000270D0008270D0008270D0008270D0008DF
:1001300000F002F800F03FF80AA090E8000C8244BA
:100140008344AAF10107DA4501D100F034F8AFF297
:10015000090EBAE80F0013F0010F18BFFB1A43F0A5
:10016000010318473C3000005C300000103A24BF07
:1001700078C878C1FAD8520724BF30C830C144BF0C
:1001800004680C607047000000230024002500264E
:10019000103A28BF78C1FBD8520728BF30C148BFEA
:1001A0000B607047782902F03F84002070471FB52C
:1001B0001FBD10B510BD02F0EFFC1146FFF7F7FFB1
:1001C00000F01BF802F00DFD03B4FFF7F2FF03BCD3
:1001D00000F002FD0EB501208DF808008DF8090031
:1001E0006420ADF804004720ADF806004FF08040D1
:1001F0000090684600F0F5FA0EBD00F0A1FC4FF447
:10020000E13000F002FD13A002F0CEFB15494FF4DF
:10021000964002F084FAFFF7DDFF124C94F8E400F8
:100220000128FBD10F4802F026FAF7E710B50121AB
:100230008C07204601F071FF012809D1642109488B
:1002400002F07FFB2046BDE81040012101F071BFA4
:1002500010BD00002D2D2D2D73746172742D2D2D68
:100260002D0D0A00F800002070477047FEE7FEE7FA
:10027000FEE7704770477047704700000CB50021DB
:100280004B4801910091026842F4803202604FF4C1
:10029000A063026802F400320092019A521C01929B
:1002A000009A12B9019A9A42F3D10268920333D5A7
:1002B000012100913F490A6842F010020A600A6871
:1002C00022F003020A600A6842F002020A604168F2
:1002D000416041684160416841F48061416041682A
:1002E00021F47C114160416841F4E81141600168EA
:1002F00041F08071016001688901FCD5416821F0FD
:1003000003014160416841F0020141604168C1F36D
:1003100081010229FAD10CBD00910CBD244810B511
:10032000016841F0010101604168234A11404160C8
:100330000168224A11400160016821F480210160B6
:10034000416821F4FE0141604FF41F018160FFF715
:1003500095FF1B494FF00060086010BD144910B5AF
:100360004868184A10F00C03174803D0042B01D03A
:10037000082B0AD002604968134AC1F30311121D09
:10038000515C0268CA40026010BD4A684B6802F4C2
:1003900070124FF0020413F4803F04EB924202D03B
:1003A0004B689B0301D5094B00E0064B5A43E1E73C
:1003B00000100240002002400000FFF8FFFFF6FEA0
:1003C00008ED00E000127A000000002000093D0066
:1003D00010B5884C40F22551204601F003F9002861
:1003E00008D0204601F097F8C1B2BDE8104082481D
:1003F00002F0B6B910BD2DE9F041804686B001216A
:10040000242000F03CFF01214E04304600F040FF64
:100410008020ADF8000010208DF8030003258DF832
:1004200002506946754800F040FD0424ADF80040D4
:100430001820734F8DF803006946384600F035FDEB
:100440000820ADF800008DF803406946384600F0FA
:100450002CFD0121304600F02DFF0021304600F038
:1004600029FF00243011ADF80840ADF80A00ADF8BE
:100470000C400C205F4EADF80E00CDF80480ADF8B6
:10048000104001A9304600F079FF26208DF81400B5
:100490008DF815508DF8165001208DF8170005A81D
:1004A00000F059FC012240F22551304600F0E3FFF4
:1004B0000121304600F0D5FF5248C0F89C4106B0FB
:1004C000BDE8F0812DE9F0414E4F80460024012027
:1004D0000E46C7F89C01474D0CE04021284601F02C
:1004E00077F80028F9D018F80410284601F00FF822
:1004F000641CA4B2B442F0D34021284601F068F84D
:100500000028F9D0404900200870C7F89C01D7E7BF
:100510002DE9F0413B4F804601200E46C7F89C0173
:100520000024344D0CE04021284601F051F8002809
:10053000F9D018F80410284600F0E9FF641CE4B272
:10054000B442F0D34021284601F042F80028F9D007
:100550002D4900200870C7F89C01B1E72DE9F04152
:10056000284F06460120C7F89C010024214D0BE0CE
:100570004021284601F02CF80028F9D0315D2846AA
:1005800000F0C5FF641CE4B2305D0028F0D14021CA
:10059000284601F01DF80028F9D01B4900200870FA
:1005A000C7F89C018CE72DE9F047DFF85C90002448
:1005B000074699F800500E46A0460C700A2000F03D
:1005C000EDFA99F80000854212D1002D10D00F48A5
:1005D00003E0015D3955641CE4B2AC42F9D3641CFC
:1005E000E1B207F8018099F80020327089F80080A4
:1005F000BDE8F08700440040F800002000140140EE
:10060000000801400080224214000020F001002078
:1006100070B5094DFF231A4605F5807606E000BF48
:1006200010F8014B54402A5D5A40335D491E89B28F
:10063000F6D242EA032070BD782F00082DE9F05F62
:100640000446FC49FC48FD4DFD4EFE4FDFF8F883A3
:10065000DFF8F893DFF8F8A3DFF8F8B38C4204D1A1
:100660000121C01400F00BFE0FE0B4F1804F06D062
:1006700084420AD10121022000F00AFE0CE0BDE80C
:10068000F05F0121084600F003BEAC4204D1012115
:10069000042000F0FDFD06E0B44204D10121082051
:1006A00000F0F6FD06E0BC4204D10121102000F06C
:1006B000EFFD06E0444504D10121202000F0E8FDD3
:1006C00006E04C4504D10121480300F0D8FD06E0C6
:1006D000544504D10121C80400F0D1FD06E05C4579
:1006E00004D10121080500F0CAFD07E0DA48844280
:1006F00004D10121480500F0C2FD07E0D74884423B
:1007000004D10121402000F0C3FD07E0D448844219
:1007100004D10121802000F0BBFD07E0D1488442D4
:1007200004D10121801500F0B3FD07E0CE488442DA
:1007300004D10121080400F0A2FD05E0CB48844269
:1007400002D10121480404E0C948844205D10121B5
:100750008804BDE8F05F00F092BDBDE8F09F38B5B9
:10076000B54CB64BB0F1804F05D0A04205D11D204D
:100770008DF8000005E01C20FAE7984201D11E2008
:10078000F6E78DF801108DF8022001208DF80300A6
:100790004FF4A06000F0DAFA684600F0DCFA38BDE9
:1007A000FEB515460C460646FFF748FF0021ADF89A
:1007B0000050ADF80440ADF80210ADF806106946DF
:1007C000304600F0D7FF0121304601F0A3FC0122A2
:1007D0001146304601F08CFA0121304601F073FADF
:1007E000FEBD3EB504460068FFF728FF627A217A15
:1007F0002068FFF7B4FF206800F024FF206801F0B4
:100800008DFAE088ADF800000020ADF80200A18864
:10081000ADF80410ADF806006946206800F0AAFFA4
:100820000121206801F076FC01221146206801F0C8
:100830005FFA0121206801F046FAE1880122206870
:1008400001F0B5FA3EBD1FB504467020ADF80000BA
:100850000220ADF808000120ADF80610ADF8020046
:10086000012A0ED0022A15D0032A1CD0042A07D14F
:100870006946204601F062F80821204601F022FB7B
:100880001FBD6946204600F0AEFF0821204601F05A
:10089000F8FA1FBD6946204600F0DAFF082120461D
:1008A00001F000FB1FBD6946204601F00DF808214C
:1008B000204601F001FB1FBD10B504468189806808
:1008C00000F009F9E288A1882068FFF769FF227C1F
:1008D000E1892068BDE81040B5E7027C012A08D014
:1008E000022A09D0032A0AD0042A0BD1006801F099
:1008F000F2BB006801F0E9BB006801F0E8BB0068EA
:1009000001F0E7BB70472DE9FE430E460D468046D9
:1009100001211F4691460024084600F0B0FC4A46DB
:100920003146404600F0F2F802E06D08641CE4B283
:10093000002DFAD1601DC5B24FF43E32641E08EBA3
:100940000200E1B2C0F3872000F067FB0B2D01D25B
:100950008DF80050A5F10B00052802D217208DF864
:100960000000103D062D02D228208DF80000012441
:100970008DF803404FF4A06000F0E8F978788DF826
:100980000100B8788DF80200684600F0E4F98DF8AF
:100990000A40002001968DF8080038788DF809008B
:1009A00001A801F0D7FBBDE8FE8330B50446827A8A
:1009B000018987B0406800F0A9F82068FFF73EFE83
:1009C000A089ADF81400E089ADF810000020ADF862
:1009D0001600ADF8120004A9206800F0CBFEA08A32
:1009E000ADF80400E08A0125ADF80600ADF8085026
:1009F000208BADF80A00608BADF80C0001A92068CF
:100A000001F070F82068B0F1804F02D11C208DF801
:100A1000000009492068884202D11D208DF800009D
:100A200006492068884202D11E208DF80000A07C73
:100A300020E00000002C01400004004000080040BD
:100A4000000C004000100040001400400034014041
:100A5000004C01400050014000540140001800408B
:100A6000001C0040002000400040014000440140C4
:100A7000004801408DF80100E07C8DF802008DF8FF
:100A80000350684600F067F907B030BD04490A68B2
:100A900002430A60704702490A6882430A6070474D
:100AA0000004014038B504464FF43E300D46204462
:100AB000810A04208840012100F0E1FB10208DF81C
:100AC0000300ADF8005003208DF80200694620466F
:100AD00000F0EBF938BD38B504464FF43E300D4612
:100AE0002044810A0420884040F00100012100F0E8
:100AF000C6FB18208DF80300ADF8005003208DF8D8
:100B000002006946204600F0D0F938BDF8B5044629
:100B10004FF43E300E462044810A0420884015469A
:100B2000012100F0ACFB8DF80350ADF8006003200C
:100B30008DF802006946204600F0B7F9F8BD0000C4
:100B400010B56FF0040000F046F920482049006815
:100B5000B0FBF1F0C1B21F4801EB41020170C2EBE2
:100B6000C1114FF6FF7202EAC101418010BD19495F
:100B7000097848434FF0E021486100228A61086902
:100B800040F0010008610869C30701D0C003FAD52D
:100B9000086920F0010008618A6170470D494988A1
:100BA00048434FF0E021486100228A61086940F023
:100BB000010008610869C30701D0C003FAD50869BC
:100BC00020F0010008618A617047000000000020E9
:100BD00000127A0016000020704748490A88520621
:100BE000FCD5464AC1B2121D1180704730B5434B47
:100BF00000221C1D06E01D886D06FCD5855C258045
:100C0000521C92B28A42F6D330BD70B5054686B00A
:100C1000012144F2040000F032FB4FF40070ADF803
:100C2000100003248DF812401820354E8DF8130063
:100C300004A9304600F039F93015ADF81000042051
:100C40008DF8130004A9304600F02FF925208DF807
:100C500014008DF815408DF8164001208DF817000E
:100C600005A800F078F80020ADF80400ADF8060003
:100C7000ADF80800ADF80C000C20204CADF80A00CF
:100C800000956946204600F079FB012240F225518B
:100C9000204600F0F0FB0121204600F0E2FB06B008
:100CA00070BD70B5154C40F22551204600F09AFCFD
:100CB00000280ED0204600F02EFCC2B21148018858
:100CC0000B0406D44C044FF0000306D50A2A01D0C9
:100CD000038070BD41F400410DE00D2A09D0C1F33D
:100CE0000D04094D491C89B22A550180C729EFD846
:100CF00070BD41F48041018070BD000000380140AA
:100D0000000801401A0000203002002009488047F6
:100D100009480047FEE7FEE7FEE7FEE7FEE7FEE7DD
:100D2000FEE7FEE7FEE7FEE704480549054A064BF5
:100D3000704700001D03000831010008580300201F
:100D4000580900205805002058050020284908436C
:100D500028490860704770B50F23C47801780122D4
:100D6000F4B1244C2468457804F4E064C4F5E064EC
:100D7000240AC4F10406E3408478B5401C402C43A7
:100D800001F1E021230181F80034007800F01F0117
:100D90008A404009800000F1E020C0F8002170BDC9
:100DA00001F01F0082404809800000F1E020C0F8F7
:100DB000802170BD104A114001430E48001F0160A0
:100DC00070470C4A121D0029116801D0014300E050
:100DD0008143116070474FF0E0210428086903D077
:100DE00020F004000861704740F00400FAE70000BA
:100DF0000000FA050CED00E080FFFF1F914910B5DF
:100E0000884206D10121042000F04BFA0021042081
:100E10003BE08D49884206D10121082000F041FACB
:100E20000021082031E08949884206D101211020A3
:100E300000F037FA0021102027E08549884206D1CA
:100E40000121202000F02DFA002120201DE0814901
:100E5000884206D10121402000F023FA00214020E1
:100E600013E07D49884206D10121802000F019FA63
:100E70000021802009E0794988420AD184150121A6
:100E8000204600F00EFA00212046BDE8104000F098
:100E900008BA10BD10B50121084600F002FA002181
:100EA000BDE81040012000F0FCB9F0B5CA7800257B
:100EB00002F00F03D20601D58A7813430A784FF067
:100EC0000F0E12F0FF0F4FF001021DD0D0F80040BE
:100ED0000F8802FA05F63740B74211D14FEA850C68
:100EE0000EFA0CF724EA070703FA0CF43C43CF7818
:100EF000282F02D0482F02D002E0466100E00661B0
:100F00006D1C082DE4D304600C88FF2C1ED94468A6
:100F10005FF0000606F1080702FA07F50F882F4078
:100F2000AF420FD14FEA860C0EFA0CF7BC4303FA1E
:100F30000CF73C43CF78282F00D14561CF78482F5C
:100F400000D10561761C082EE4D34460F0BD4FF655
:100F5000FF710180022181700421C1707047024637
:100F6000002092680A4200D001207047806880B259
:100F7000704702460020D2680A4200D00120704724
:100F8000C06880B2704701617047416170470AB123
:100F90000161704741617047C160704741F4803220
:100FA0008261816182618169806970472C4B10B5D3
:100FB0001A684FF68074224042EA00100843186015
:100FC00010BD2849C8617047F0B5254C002801DAEA
:100FD000E36900E06368420D120185B2C0F3015776
:100FE0009540C0F30346032F05D0C2020AD5032261
:100FF000B240934307E023F07062636823F07063AC
:10100000636002E0AB4343F0706201B12A43002801
:1010100001DAE261F0BD6260F0BD10B58A0721F02F
:1010200003040F49130F21440F228C689A40944304
:101030008C608A68984002438A6010BD0949C1F8F3
:10104000DC00704700080140000C01400010014026
:101050000014014000180140001C01400020014024
:101060000000014000002042A448016841F0010155
:1010700001604168A24A114041600168A14A1140E3
:101080000160016821F480210160416821F4FE01C2
:1010900041604FF41F018160704798490A6822F44B
:1010A00080320A600A6822F480220A60B0F5803F2C
:1010B00007D0B0F5802F03D1086840F4A020086065
:1010C0007047086840F48030F9E702460020530971
:1010D0008A49012B0AD0022B0AD0496A02F01F026A
:1010E000012393400B4200D0012070470968F5E7C7
:1010F000096AF3E718B500204FF4A064009031208E
:10110000FFF7E3FF0099491C0091A14201D000289C
:10111000F5D03120FFF7D9FF002800D0012018BDFD
:1011200076490A6822F0F80242EAC0000860704777
:10113000754908607047714A5368084323F47C136B
:101140001843506070477049086670476B4A516891
:1011500021F003010143516070476848406800F086
:101160000C007047654A516821F0F001014351605D
:101170007047624A516821F4E06101435160704751
:101180005E494A6822F4605242EAC00048607047F3
:101190005A4A0029517A01D0014300E0814351723B
:1011A00070475949C1F8D8007047544A516821F432
:1011B00040410143516070475049002281F820208E
:1011C00081F82020012802D0042802D1052081F8CE
:1011D000200070474D490860704748490A6A024339
:1011E0000A627047494944390860704730B543493D
:1011F0004A6812F00C03464A03D0042B01D0082B96
:1012000021D002604A680F23424C03EA1212A35C09
:101210000268DA4042604B68072505EA1323E35C65
:1012200022FA03F383604B6805EAD323E35CDA40D8
:10123000C2604968032303EA9131231F595CB2FB62
:10124000F1F1016130BD4A684B6802F470124FF051
:10125000020413F4803F04EB924202D04B689B03DC
:1012600001D52D4B00E02A4B5A43CAE7234A0029F7
:10127000516901D0014300E08143516170471F4A29
:101280000029916901D0014300E0814391617047D9
:101290001A4A0029D16901D0014300E08143D1619C
:1012A0007047164A0029D16801D0014300E081430C
:1012B000D1607047114A0029116901D0014300E053
:1012C00081431161704711494039086070470E49E8
:1012D000C86470470949C87170470848416A41F0BD
:1012E000807141627047054A0146002092680A42B7
:1012F00000D00120704701498872704700100240F9
:101300000000FFF8FFFFF6FE000042428004424268
:1013100000127A002400002000093D00C44910B5E5
:1013200088420AD101218C032046FFF7BAFF2046EC
:10133000BDE810400021FFF7B4BFBE49884202D18A
:1013400001214C0410E0BC49884202D101218C04E7
:101350000AE0BA49884202D10121CC0404E0B8492C
:1013600088420AD101210C052046FFF7A3FF204641
:10137000BDE810400021FFF79DBF10BD30B5044609
:10138000008A85B00D464CF6FF710840E98801439C
:101390002182A1894EF6F3100140A8882A891043C2
:1013A0006A890A431043A081A08A4FF6FF41084092
:1013B000A9890143A1826846FFF718FF9C4884422F
:1013C00001D1039800E00298A189090400EBC00153
:1013D00001EB0010296801D5490000E08900B0FB4D
:1013E000F1F06422B0FBF2F109010B096FF018056E
:1013F0006B4300EB8300A3891D044FF0320306D535
:1014000003EBC000B0FBF2F000F0070005E003EBD7
:101410000010B0FBF2F000F00F000843208105B08F
:1014200030BD4FF41651016000218180C1800181DF
:101430000C2242818181704710B5038A4FF2FF026E
:1014400013400A884C8822438C88C9880C43224365
:101450001A43028210BD0021018041808180C18039
:1014600070470029818902D041F4005101E021F444
:1014700000518181704710B5C1F3421301F01F0480
:101480000121A140012B07D0022B07D01430002AE4
:10149000026805D00A4304E00C30F8E71030F6E7A4
:1014A0008A43026010BD002A828A01D00A4300E00C
:1014B0008A4382827047028A22F00F020282028AE5
:1014C0000A4302827047828922F400628281828903
:1014D0000A43828170470029818902D041F00201CC
:1014E00001E021F0020181817047028A22F020028E
:1014F0000282028A0A43028270470029018A02D0CE
:1015000041F4804101E021F4804101827047C1F340
:101510000801818070478088C0F308007047818986
:1015200041F0010181817047028BD2B20283028BAC
:1015300042EA012101837047028B02F47F42028359
:10154000028B0A43028370470029818A02D041F04E
:10155000200101E021F02001818270470029818A69
:1015600002D041F0100101E021F0100181827047AA
:101570000029818A02D041F0080101E021F0080130
:10158000818270470029818902D041F4004101E045
:10159000C1F30E01818170470029818A02D041F494
:1015A000006101E021F4006181827047828A22F0AB
:1015B00004028282828A0A43828270470029818AD9
:1015C00002D041F0020101E021F002018182704766
:1015D0000246002012880A4200D001207047C94309
:1015E0000180704730B501F01F0201240025C1F3CE
:1015F000421304FA02F2012B0FD0022B0FD0838A80
:101600004FEA11210088134204FA01F400EA0400B1
:1016100001D000B10125284630BD8389F0E7038A57
:10162000EEE70A0A01219140C9430180704700009A
:10163000003801400044004000480040004C004099
:1016400000500040F94910B5884202D10121C4146C
:1016500086E0B0F1804F09D0F54988420DD10121D3
:101660000220FFF727FE0021022064E00121084646
:10167000FFF720FE002101205DE0EE49884206D1FF
:1016800001210420FFF716FE0021042053E0EA495F
:10169000884206D101210820FFF70CFE0021082016
:1016A00049E0E649884206D101211020FFF702FEF9
:1016B000002110203FE0E249884206D1012120208C
:1016C000FFF7F8FD0021202035E0DE49884202D1F5
:1016D0000121441444E0DC49884202D10121CC04B8
:1016E0003EE0DA49884202D101210C0538E0D849B0
:1016F000884202D101214C0532E0D649884206D108
:1017000001214020FFF7D6FD0021402013E0D249FF
:10171000884206D101218020FFF7CCFD00218020E6
:1017200009E0CE4988420AD1841501212046FFF7FD
:10173000C1FD00212046BDE81040FFF7BBBDC849F0
:10174000884202D101210C040AE0C649884202D134
:1017500001214C0404E0C44988420AD101218C04CF
:101760002046FFF79EFD2046BDE810400021FFF710
:1017700098BD10BD30B50288AC4BB24C98420DD02C
:10178000A0420BD0B0F1804F08D0A94DA84205D09F
:10179000A84DA84202D0A84DA84203D122F070055E
:1017A0004A882A43A54DA84206D0A54DA84203D099
:1017B00022F44075CA882A4302808A8882850A8872
:1017C000028598420AD0A04208D0A54A904205D08E
:1017D000A44A904202D0A44A904201D1097A0186DB
:1017E0000121818230BD30B5028C22F001020284D9
:1017F000028C8388048B22F0020224F073050C888B
:101800002C430D8915434A882A43884DA8420BD0A2
:101810008C4DA84208D0924DA84205D0914DA842C7
:1018200002D0914DA8420DD122F008054A8923F437
:1018300040732A4322F004058A882A438D891D4378
:10184000CB892B4383800483C9888186028430BD81
:1018500070B5028C22F010020284028C8488038B03
:101860000D8823F4E6464FF6FF7303EA052535435A
:101870000E8922F0200203EA061616434A8803EA7C
:1018800002123243694EB04202D06E4EB04215D1C0
:1018900022F080064A8924F4406403EA02123243AB
:1018A00022F040068A8803EA021232438E8903EA54
:1018B00086062643CC8903EA840434438480058366
:1018C000C9880187028470BD70B5028C22F48072D1
:1018D0000284028C8488838B0D8823F073031D435C
:1018E00022F400730E894FF6FF7202EA06261E43A9
:1018F0004B8802EA032333434C4EB04202D0514E90
:10190000B04215D123F400664B8924F4405402EA16
:101910000323334323F480668B8802EA0323334393
:101920008E8902EA06162643CC8902EA041434435F
:1019300084808583C9888187038470BD70B5028CDB
:1019400022F480520284048C8288838B0D8823F4D5
:10195000E6464FF6FF7303EA0525354324F40056A7
:101960000C8903EA043434434E8803EA06362643DE
:101970002E4CA04202D0334CA04205D122F4804428
:101980008A8903EA8212224382808583C988A0F86B
:101990004010068470BD828B22F440628283828B69
:1019A0004FF6FF7303EA01210A4382837047828B5B
:1019B00022F00C028283828B0A4382837047028B5F
:1019C00022F440620283028B4FF6FF7303EA012187
:1019D0000A4302837047F0B5048C24F01004048499
:1019E000078B048C4FF6FF7527F4734705EA033322
:1019F0003B4305EA02221A430C4B05EA01169842C2
:101A00000ED0104B98420BD0B0F1804F08D0084B4D
:101A1000984205D0074B984202D0074B984225D1F7
:101A200024F02001314341F0100124E0002C01405A
:101A30000004004000080040000C0040001000407E
:101A40000014004000340140004C014000500140AF
:101A50000054014000180040001C004000200040DD
:101A600000400140004401400048014024F0A00330
:101A70000B4343F0100102830184F0BD028B22F07E
:101A80000C020283028B0A430283704770B5048CF8
:101A900024F001040484058B048C4FF6FF7606EADB
:101AA0000313134325F0F305F94A2B4390420ED05C
:101AB000F84A90420BD0B0F1804F08D0F64A9042DD
:101AC00005D0F64A904202D0F54A904202D124F065
:101AD000020201E024F00A020A4342F001010383FA
:101AE000018470BD2DE9F05F0D4604460888E84F7B
:101AF000DFF8A0C3DFF8A0834988AA882B894FF0BC
:101B0000804960B3042832D04FF6FF7E082836D0D3
:101B1000208C9B4620F480502084A38B268C70461A
:101B200000EA022223F473431A4300EA0B30104305
:101B30000EEA013EBC420BD0644509D04C4507D0AB
:101B4000444505D0D54A944202D0D54B9C4245D15C
:101B500026F4005141EA0E0141F4805143E0204651
:101B6000FFF794FFE9882046BDE8F05F86E720464E
:101B7000FFF731FFE9882046BDE8F05F1FE7208CC2
:101B800020F480702084B4F81CA0208C0EEA03138B
:101B900013432AF0F30A0EEA012B43EA0A03BC427C
:101BA0000BD0644509D04C4507D0444505D0BB4A0D
:101BB000944202D0BA4A944204D120F4007040EA20
:101BC0000B0002E020F42060084340F48070A383FF
:101BD0002084E9882046BDE8F05FE8E626F402426A
:101BE0000A4342F48051A08320462184E988BDE85D
:101BF000F05FD0E62DE9F0410C4600264988074603
:101C0000012501B90226A288012A00D102252088D7
:101C100023890028384610D0FFF7DDFEE1883846DA
:101C2000FFF7CDFE23892A4631463846FFF72EFFBF
:101C3000E1883846BDE8F04120E7FFF727FFE1885B
:101C40003846FFF71BFF23892A4631463846FFF7FF
:101C5000C2FEE1883846BDE8F041B0E610B50A881A
:101C60004B88CC881A438B8823431A430B891A4329
:101C70004B8989891A430A43A0F8442010BD4FF6C6
:101C8000FF71818000210180C18041800172704715
:101C90000021018041808180C18001814181818159
:101CA000C181704700210180418001228280C18072
:101CB000018170470021018041808180C1800181C4
:101CC0004181818170470029018802D041F00101E2
:101CD00001E021F0010101807047002930F8441F24
:101CE00002D041F4004101E0C1F30E0101807047D0
:101CF000002A828901D00A4300E08A43828170472A
:101D0000818270471143A0F848107047002A8289E9
:101D100001D00A4300E08A4382817047018921F0A3
:101D2000070101817047028922F070020A43028193
:101D3000704700B50346FFF7F6FF188940F007002B
:101D4000188100BD70B516460D46602904464FF057
:101D5000010231460AD0FFF799FE29462046FFF7D7
:101D6000E2FF208940F00700208170BDFFF733FEBD
:101D7000F3E730B504894FF6FF7505EA03231343F3
:101D8000E4B20B432343038130BD10B50446FFF793
:101D9000F0FF208940F07700208110BD10B5044687
:101DA000FFF7E7FF208940F48040208110BD0185C6
:101DB00082827047028822F070020A4302807047D4
:101DC00070B50589048B068C25F007050D434FF689
:101DD000FC410C4040F201110C434FF6FF7101EA47
:101DE000031126F022061143314305810483018447
:101DF00070BD028B22F070020A4302837047028B8F
:101E00004FF6FF7322F4E04203EA012111430183FC
:101E10007047828B22F070020A4382837047828B64
:101E20004FF6FF7322F4E04203EA0121114381835C
:101E300070470029018802D041F0800101E021F0C3
:101E40008001018070470029818802D041F004019F
:101E500001E021F00401818070470029818802D0CF
:101E600041F0080101E021F008018180704700295C
:101E7000818802D041F0010101E021F0010181805F
:101E80007047028B22F008020A4302837047000069
:101E9000002C0140003401400004004000080040D4
:101EA000000C0040028B4FF6FF7322F4006203EA3D
:101EB000012111430183E9E7828B22F008020A43E2
:101EC0008283E3E7828B4FF6FF7322F4006203EA1A
:101ED000012111438183D9E7028B22F004020A43D6
:101EE0000283D3E7028B4FF6FF7322F4806203EA8A
:101EF000012111430183C9E7828B22F004020A43C6
:101F00008283C3E7828B4FF6FF7322F4806203EA79
:101F1000012111438183B9E7028B22F080020A4339
:101F20000283B3E7028B4FF6FF73C2F30E0203EA9C
:101F3000012111430183A9E7828B22F080020A4329
:101F40008283A3E7828B4FF6FF73C2F30E0203EA8C
:101F500001211143818399E7028C22F002020A4396
:101F6000028493E7028C22F008020A4302848DE780
:101F7000028C4FF6FF7322F0200203EA0111114395
:101F8000018483E7028C4FF6FF7322F0800203EA9C
:101F900001111143018479E7028C4FF6FF7322F49B
:101FA000007203EA0121114301846FE7028C4FF6AE
:101FB000FF7322F4006203EA01211143018465E703
:101FC000028C4FF6FF7322F4005203EA01311143F1
:101FD00001845BE710B50123048C8B409C4304848F
:101FE000038C8A401343038410BD10B50423048C72
:101FF0008B409C430484038C8A401343038410BDAC
:1020000030B50124058C00F118038C40A5430584EC
:1020100089B108290FD0091FC1F34E001844016887
:1020200021F4E041016001684FF6FF7303EA0222E8
:102030001143016030BD03EB5100016821F07001D4
:1020400001600168F4E70029018802D041F0020133
:1020500001E021F00201018018E70029018802D087
:1020600041F0040101E021F0040101800EE70029A4
:10207000818802D041F0800101E021F0800181805F
:1020800004E7028822F00802028002880A430280E4
:10209000FCE6828822F07002828082880A43828075
:1020A000F4E6028922F00702028102890A430281D2
:1020B000ECE6028922F08002028102890A43028151
:1020C000E4E68184E2E68185E0E68186DEE601875A
:1020D000DCE68187DAE6A0F84010D7E6028822F431
:1020E0004072028002880A430280CFE6808ECDE6ED
:1020F000008FCBE6808FC9E6B0F84000C6E6808C42
:10210000C4E6008DC2E602460020128A0A4200D0D0
:102110000120BBE6C9430182B8E602460020138ACB
:1021200092890B4202EA010202D0002A00D001206B
:10213000ACE6C9430182A9E6374900200860091DC1
:102140000860091D0860091D0860334933481431CF
:102150000860704730B530498379026853B30B6823
:1021600093430B600A1D13680468A343136002794C
:102170000A441368046823431360274A083213682B
:102180000468A3431360131D1C680568AC431C60FE
:102190004479102C05D021440A68006802430A6083
:1021A00030BD11680468214311601968006801435B
:1021B000196030BD0079084401689143016030BD69
:1021C0000021016001710C22427181717047124936
:1021D00010310A6802430A60704701460E4A002027
:1021E000143212680A4200D0012070470A491431A3
:1021F00008607047084A014600201268064B0A40F2
:1022000014331B680B4202D0002A00D00120704713
:10221000014914310860704700040140FFFF0F00BE
:10222000FEF750B900687047006870470860704753
:1022300070B50D460446022901D2032070BD2078F6
:102240000028FBD022702046FEF7E2F96055000A14
:102250006119487094F8E8000028FDD0A91C2046B8
:10226000FFF7DEFF002084F8E80070BDF0B5002421
:1022700000F00705C608C5F1080010E006EB040CE5
:102280000CEB030713F80CC07F7887402CFA05FC91
:1022900047EA0C0708391755641C89B2A4B208290B
:1022A000ECD269B13719FE1876788640D85DE840DF
:1022B0000643C1F108008640F1B2C140115501E06A
:1022C000641EA4B2641CE0B2F0BD70B504460026E2
:1022D0000221801C00F006FB85B20221201D00F0C7
:1022E00001FB0104090C04D0B1F5FA6F01D85029A3
:1022F00001D9032070BD6818502801D9022070BD93
:10230000C81DC008A070E21C2846D4F8CC30FFF7E6
:10231000ADFFC01CC1B201222046FFF789FF304645
:1023200070BD70B5054600260221801C00F0DAFA67
:1023300084B20221281D00F0D5FA81B2502C01D9B7
:10234000022070BD21B1B1F57F4F01D0032070BDD7
:1023500004F00703E208D5F8CC0001240029815CD1
:1023600004FA03F408D021438154012206212846AF
:10237000FFF75EFF304670BDA143F5E72DE9F0435E
:1023800000F007050024C0084FF0FF09082927D3F3
:10239000C5F10806071912F8048013F807C008FAF7
:1023A00005F80CFA06FC0CF0FF0C2CFA06FC4CEAC3
:1023B000080C03F807C01F4412F804C097F8018006
:1023C0002CFA06FC28FA05F808FA05F80839641C06
:1023D0004CEA080C89B287F801C0A4B20829D9D206
:1023E0004E19082E19D90619C5F10807985D12F87B
:1023F00004C0B84038410CFA05FC40EA0C0098557E
:10240000C81B80B2115DC0F10802D140F2185378A8
:10241000C34083401943517011E081B129FA05F698
:10242000AE40C5F10807791A8E40F6B2CE40F143AE
:102430000619985D0840115DA94008439855002091
:10244000BDE8F08370B5044600260221801C00F030
:1024500049FA85B20221201D00F044FA81B2C81D5C
:10246000A279C0F3C700824204D119B17B2901D8F7
:10247000502901D9032070BD2844502801D90220D9
:1024800070BDE21D2846D4F8CC30FFF777FF08B1C5
:10249000042070BD012206212046FFF7C9FE304608
:1024A00070BD70B5044600260221801C00F01AFAA7
:1024B00085B20221201D00F015FA0104090C04D098
:1024C000B1F5FA6F01D8282901D9032070BD681829
:1024D000282801D9022070BDC81DC008A070E21CC8
:1024E0002846D4F8D030FFF7C1FEC01CC1B201228B
:1024F0002046FFF79DFE304670BD70B500240CE00D
:10250000051933F81560360A02F8146002EB440628
:1025100013F81550641C7570A4B28C42F0D3600699
:10252000000E70BD70B5044600260221801C00F02C
:10253000D9F985B20221201D00F0D4F90104090C5B
:1025400003D07D2901D8122901D9032070BD681854
:10255000122801D9022070BD4800A070E21C284654
:10256000D4F8D430FFF7C9FFC01CC1B20122204605
:10257000FFF75EFE304670BD70B505460221801C37
:1025800000F0B0F984B20221281D00F0ABF980B24E
:10259000122C01D9022070BDD5F8D410012221F8E7
:1025A0001400002406212846FFF742FE204670BD95
:1025B0002DE9F041044600260221801C00F092F92A
:1025C00085B20221201D00F08DF90004A179000CD4
:1025D00006D07B2804D8B1EB400F01D1122802D9D4
:1025E0000320BDE8F0812918122901D90220F8E75B
:1025F000E21D0021D4F8D4300AE000BF02EB41070D
:1026000005EB010C3F88491C7FBA23F81C70C9B246
:102610008142F3D3012206212046FFF709FE30460E
:10262000DFE770B5044600260221801C00F05AF94D
:1026300085B20221201D00F055F90104090C03D0D8
:102640007D2901D8122901D9032070BD68181228EC
:1026500001D9022070BD4800A070E21C2846D4F8C1
:10266000D830FFF74AFFC01CC1B201222046FFF755
:10267000DFFD304670BD70B5044690F8DC000428DC
:1026800004D2204600F03EF9412070BD801E81B288
:102690002046FDF7BDFF94F8DC10A21EC3B28A5C91
:1026A0009A4204D1621E895CB1EB102F09D00C2034
:1026B000A070204600F0B8F8204600F023F90C2066
:1026C00070BD607810281ED8E8B10020674E05461E
:1026D000617816F835208A4204D106EBC5004168BE
:1026E000204688476D1CADB2082DF1D3050005D0FA
:1026F000214600F0AEF8204600F096F8204600F0A3
:1027000001F9284670BD2146012000F0A2F82046BC
:1027100000F08AF8204600F0F5F8012070BD70B591
:10272000054653480C46B0FBF5F000F09CFA002239
:10273000504B00F0ABFA032200F0D8FB00F066FA31
:10274000C4F8E0004C4844F8CC0F4C4860604C485A
:10275000A0604C48E0602846BDE87040FDF74BBEE5
:1027600030B590F8EC300022012B07D090F8E4301F
:10277000002B05D190F8DC301BB10AE0A0F8EA206C
:1027800030BD0124012915D0A1B180F8EC40A0F89A
:10279000EA2090F8E940012CF2D100BFA0F8E62031
:1027A000C15490F8DC100246C829E9D2491C82F8CD
:1027B000DC1030BD80F8E940F0E710B50446417800
:1027C00031A000F0F1F834A000F0EEF8A07810BDD0
:1027D00010B5044641782CA000F0E6F832A000F0D5
:1027E000E3F8A07810BD10B50446417826A000F0AB
:1027F000DBF831A000F0D8F8A07810BD10B5044681
:10280000417821A000F0D0F82FA000F0CDF8A078FA
:1028100010BD10B5044641781BA000F0C5F82DA0EE
:1028200000F0C2F8A07810BD70B5064600200F4D2C
:1028300004464035B27815F83410914204D105EBC6
:10284000C400416830468847641CA4B2082CF1D308
:1028500070BD0B46012119705978012241F08001A9
:102860005970987003211846E2E400008C000020A3
:1028700040420F0000000C40340000203E000020C9
:10288000440000206800002066756E4E756D203D86
:1028900020307825780D0A005253505F4572726FD0
:1028A00046554E0D0A0000005253505F4572726F3C
:1028B000414444520D0A00005253505F4572726FFA
:1028C0004E554D0D0A0000005253505F4572726F15
:1028D000340D0A005253505F4572726F4352430DDC
:1028E0000A00000030B503460020024607E08C1ABB
:1028F000E5009C5C083DAC402043521CD2B28A42A9
:10290000F5D330BD002180F8E41080F8E91080F89C
:10291000DC10704710B590F8E8207AB9204A1368A7
:102920005B1C1360D0F8E040B4FBF1F1B3EB410F56
:1029300004D900211160012180F8E81090F8E80026
:1029400010BD30B50D460446FFF7E4FF94F8E910DA
:102950000020012910D1B4F8E610491C89B2A4F86E
:10296000E610D4F8E020B2FBF5F28A4204D201214D
:1029700084F8E41084F8E90094F8EC1001290DD1F2
:10298000B4F8EA10491C89B2A4F8EA10D4F8E0209F
:10299000B2FBF5F28A4201D284F8EC0030BD0000AF
:1029A000F4000020704700000FB4044910B503AADA
:1029B000029800F0C3F810BC5DF814FB1C00002066
:1029C0002DE9F0410E460446002020622046E168D1
:1029D000884730B3252805D0D4E901219047206AE3
:1029E000401CF2E7E168204600278847050018D020
:1029F000A5F14100192802D820354FF4006732466E
:102A0000294620462760FDF7CDFB40B1012804D0C0
:102A1000F61D26F007060836D8E7361DD6E7284605
:102A2000DAE7206ABDE8F08170B504460D4621461C
:102A30001068AFF300802188090502D50F4A7A4457
:102A400002E00E4A7A440E32002104F1240305E02C
:102A500000F00F060009965D5E54491C0028F7D16E
:102A600020780023000704D5702D02D009B102237D
:102A700011322046BDE8704000F006B8360700006D
:102A800070477047704770472DE9F0470D469946EB
:102A90009246044600F124080168880604D5E069DE
:102AA00021F01001216000E00120A84201DD471B58
:102AB00000E00027A1697A1902EB0900081AA06159
:102AC0002078C00602D42046AFF30080002608E03C
:102AD000D4E901211AF806009047206A401C761CB0
:102AE00020624E45F4DB2078C0060AD52046AFF3BD
:102AF000008006E0D4E9012130209047206A401C84
:102B00002062381EA7F10107F4DC07E0D4E90121B7
:102B100018F805009047206A401C2062281EA5F185
:102B20000105F3DC2046AFF300802078000602D5D3
:102B30000220BDE8F0870120FBE70000074B70B5DD
:102B40000D467B4400F011F80446284600F020F8BA
:102B500010B14FF0FF3070BD204670BD95E0FFFF13
:102B600001694A1C02610878704700B58FB0CDE951
:102B700001310021059105497944CDE90310114641
:102B80006846FFF71DFF0FB000BD0000E5FFFFFF27
:102B9000007B00F080007047754600F02BF8AE46D1
:102BA00005006946534620F00700854618B020B559
:102BB000FEF7BAF8BDE820404FF000064FF00007DE
:102BC0004FF000084FF0000B21F00701AC46ACE8D5
:102BD000C009ACE8C009ACE8C009ACE8C0098D4642
:102BE000704710B50446AFF300802046BDE81040A2
:102BF000FDF7EABA00487047F802002002494FF09A
:102C0000000000F041B900BF0000F87F4FEA115307
:102C1000A3F58063D3F11E03A8BFD3F1200C08DB1A
:102C20004FF0004242EAC12252EA505232FA03F017
:102C3000704709420BD4102BC4BF0020704703F526
:102C4000787CBCF1FF3F05D04FF0FF3070474FF06C
:102C50000000704770B500F0C3F800BF49922480AF
:102C600000207047F0E7B0FA80F310FA03F10AD0C1
:102C7000C3F11D0303F580634FEA41504FEA03524D
:102C800002EBD12170474FF000007047DFF848C1D8
:102C900070B51CEA111E1EBF1CEA13159EEA0C0F2C
:102CA00095EA0C0F00F06F8081EA030423EA4C13CD
:102CB0004EEAD47E21EA4C1141F4801143F4801392
:102CC000AE44A1FB024CA0FB0365AEF17F7E36193A
:102CD00055EB0C05A1FB034C4CF10003A0FB021CBF
:102CE00016EB0C06654153F10003094218BF46F08C
:102CF000010613F4007F0BD14FEA03314FEA053090
:102D0000340341EA155140EA16506FF003020AE01D
:102D10004FEAC3214FEAC520F40241EA555140EA87
:102D200056506FF0020202EB2E4201EB025585EA8B
:102D3000CE710AD05FEA440C18BF24F0004450F171
:102D4000000041F1000120EAD47040F2FE7C6245AF
:102D500000D270BDA84214BF4FF080444FF04044F1
:102D6000002E08BF0024BEF1806FA8BFA1F1C041B2
:102D7000BDE8704080F282804FF0000001F1C04158
:102D800001F0004170479EEA0C0F0CEA131518BFC2
:102D900095EA0C0F06D04FF0000081EA030E0EF00A
:102DA000004170BD00F01CF88900013E00F007B83A
:102DB00000F009B84FEA430C5FEA5C5C08D081EA96
:102DC000030100F05BB84FEA410C5FEA5C5CF6D1AE
:102DD0004FF00000014970470000FF070000F87F36
:102DE0000EF1020E2EF0030E5EF8046B364205D48F
:102DF000012A43EB030515F5001F12D8012841EB0A
:102E0000010C1CF5001F0CD80ED14FEAD17C15F532
:102E1000001F0CEB4C0C0CF1020C08BF4CEBD37CEC
:102E200004E04FF0080C01E04FEAD37C0CEB4C05BA
:102E300026FA05F606F00706B6F1040C06D20EEBEC
:102E4000860CBDE870404CF0010C6047DFE80CF0E8
:102E5000090B02024FF000414FF00000A1F50021E4
:102E600070BD19461046012851EB010418BFD4F576
:102E7000001484BF002001F0004170BD0808A0F5D7
:102E800000114FEA310170470CF00F03092B08BF06
:102E9000082000F059800A2B0BD0082B18BF704770
:102EA00008BF1CF0400F0AD04FF000004FF00001A7
:102EB00070471CF0400F18BF4FF0004070471CF0E7
:102EC000100F08D020F0704300F07F4242EAD30197
:102ED0004FEA4370704700F0604021F07F4242EAC1
:102EE000000201F07F4040EA727070474FF0FF0C23
:102EF0004CF4E06C1CEA11531CBF9CEA030C944593
:102F0000C2BFDA4201EB02517047002B0DD0BCF179
:102F1000000F0FD0002A01F00041A4BF41F0E041B2
:102F200041F07F614FF00000704701F000414FF029
:102F30000000704750EA01334FF09B0C18BF4CF073
:102F4000806C7FF45BAE70471CF4801F11D01CF4C2
:102F5000E02F03D06FEACC31490070474FF040506A
:102F6000EFF3008222F0704242EA000282F300880E
:102F700070474FF00000704700C1814001C08041A0
:102F800001C0804100C1814001C0804100C1814039
:102F900000C1814001C0804101C0804100C1814029
:102FA00000C1814001C0804100C1814001C0804119
:102FB00001C0804100C1814001C0804100C1814009
:102FC00000C1814001C0804100C1814001C08041F9
:102FD00001C0804100C1814000C1814001C08041E9
:102FE00001C0804100C1814001C0804100C18140D9
:102FF00000C1814001C0804101C0804100C18140C9
:1030000000C1814001C0804100C1814001C08041B8
:1030100001C0804100C1814000C1814001C08041A8
:1030200001C0804100C1814001C0804100C1814098
:1030300000C1814001C0804100C1814001C0804188
:1030400001C0804100C1814001C0804100C1814078
:1030500000C1814001C0804101C0804100C1814068
:1030600000C1814001C0804100C1814001C0804158
:1030700001C0804100C1814000C0C101C30302C240
:10308000C60607C705C5C404CC0C0DCD0FCFCE0EA8
:103090000ACACB0BC90908C8D81819D91BDBDA1A18
:1030A0001EDEDF1FDD1D1CDC14D4D515D71716D688
:1030B000D21213D311D1D010F03031F133F3F232F8
:1030C00036F6F737F53534F43CFCFD3DFF3F3EFE68
:1030D000FA3A3BFB39F9F83828E8E929EB2B2AEAD8
:1030E000EE2E2FEF2DEDEC2CE42425E527E7E62648
:1030F00022E2E323E12120E0A06061A163A3A262B8
:1031000066A6A767A56564A46CACAD6DAF6F6EAE27
:10311000AA6A6BAB69A9A86878B8B979BB7B7ABA97
:10312000BE7E7FBF7DBDBC7CB47475B577B7B67607
:1031300072B2B373B17170B0509091519353529277
:1031400096565797559594549C5C5D9D5F9F9E5EE7
:103150005A9A9B5B99595898884849894B8B8A4A57
:103160004E8E8F4F8D4D4C8C4484854587474686C7
:1031700082424383418180403031323334353637A7
:1031800038394142434445464030580030313233AB
:1031900034353637383961626364656640307800AB
:1031A000C031000800000020F80000006C01000899
:1031B000B8320008F800002060080000880100080C
:1031C00000A24A0400000000000000000102030405
:1031D00006070809000000000000000000000000D1
:1031E00002040608000000000102030401020304B7
:1031F00006070809FF53455555000000000012342A
:1032000056555500010002000300040005000600A9
:103210000700080009000A000B000C000D000E005A
:103220000F001000110012000B000C000D000E002A
:103230000F0010001100120013006E006F007000EC
:1032400071007200730074007500760001000000C8
:10325000CB22000805000000232300080F00000017
:103260004524000802000000A32400080300000019
:103270002525000806000000792500081000000040
:10328000B12500080400000023260008010000000A
:10329000BB27000802000000D1270008030000003F
:1032A000E727000804000000FD2700080C000000CC
:0832B0001328000800000000D3
:0400000508000131BD
:00000001FF
